:10138000129412941298129B129E12A112A412A7E8
:1013900012AA12AD12B012B312B612B9129412946C
:1013A00010151030104F1064106E62FE62FF65461B
:1013B000654765486549654A654B654C654D654EB1
:1013C00066556670668B66A666C166DC66F7671250
:1013D0001301672D67486763677E679967B467CFB6
:1013E00065E9101C1037104165EA65FD661C661D35
:1013F00000000000000000000000000000000000ED
:06100F001212F402131C92
:071015001210B07564012206
:10101C00AF661264848F67901501E567F01210B00B
:04102C00E4F5642261
:071030001210B075640222EA
:0A1037008566671210B0756403228D
:0E1041001210B0AD66AF671264C4E4F564220D
:10104F00901500E04410F0A37490F01210B07839AE
:05105F00E64480F622CA
:0A106400901500E054EFF00210B008
:10106E0012110290001EEFF0E0901501F01210B078
:10107E0090001EE0D394004019E0FF900069E05408
:10108E000F2430F582E43400F583EFF0900069E030
:10109E0004F0E490001FF090001DF07839E654BF84
:0210AE00F62228
:1010B0007839E6C4131313540130E013901604E09A
:1010C00054F7F07F051210F8901604E04408F0225F
:1010D000901604E054F7F07F191210F8901604E00F
:0410E0004408F022AE
:1010E400901604E054EFF07F191210F8901604E003
:0410F4004410F02292
:0A10F800EFD3940040031F80F7229D
:1011020090001BE02410F582E43400F583E09000A7
:101112001FF0E07009901500E054DFF0801D900090
:101122001BE02410F582E43400F583E4F090001B08
:10113200E004F0E0D394094002E4F090001FE0FFE5
:01114200228A
:101143007838E620E0037F002290001AE02410F5AF
:1011530082E43400F583E0701590001AE02410F562
:1011630082E43400F583EFF090001AE004F090007D
:101173001AE0D394094002E4F0901500E04420F013
:101183007839E6FFC41313540330E0037F00227859
:0B11930039E64440F61210B07F002245
:10119E0090002BE02420F582E43400F583E09000EB
:1011AE002FF0E0700D901500E054BFF090001FE09E
:1011BE00FF2290002BE02420F582E43400F583E436
:1011CE00F090002BE004F0E0D394094002E4F0909C
:0511DE00002FE0FF22DC
:1011E300EF7002FF2290002AE02420F582E434000D
:1011F300F583E0701590002AE02420F582E43400A2
:10120300F583EFF090002AE004F090002AE0D394F5
:08121300094002E4F07F002213
:10121B00E4FF74202FF582E43400F583E4F07410BE
:10122B002FF582E43400F583E4F00FEFB409E3E427
:10123B0090001AF090002AF090001BF090002BF019
:01124B002280
:10124C0090001DE004F0E0D39428403BE4F09000C3
:10125C001BE02410F582E43400F583E090001FF0CD
:10126C00E0D3940040217838E630E01B7839E6FF73
:10127C00C4131313540130E00E901500E04420F019
:08128C00E054BFF01210D02263
:031294007F0022B6
:011297002234
:031298007F0022B2
:03129B007F0022AF
:03129E007F0022AC
:0312A1007F0022A9
:0312A4007F0022A6
:0312A7007F0022A3
:0312AA007F0022A0
:0312AD007F00229D
:0312B0007F00229A
:0312B3007F002297
:0312B6007F002294
:0312B9007F002291
:1012BC00900F00E4F0A374FAF0901500E020E12602
:1012CC00900F01E024FFF0900F00E034FFF0208F2E
:1012DC0007E07002A3E070E1901500E054EFF0120B
:0712EC0010B0C28FC322D332
:0112F30022D8
:0D12F400C2AB758DFDE4F58BD28EC28F224A
:10130100E563540F25E024A0F582E43413F583E46A
:0B13110093FE740193AA06F902858187
:10131C00901500E030E319901504E0F563E4F564F2
:10132C00E563C4540F25E024C0F582E43413801720
:10133C00901504E0F566E564601DE564540725E04E
:10134C0024E0F582E43413F583E493FE740193AA4C
:10135C0006F9128581800E90006DE0C394FF500554
:10136C00E004F080F2901500E030E4051212BC406D
:04137C009FD2AB222F
:10140000901300E0FFE054FEF0901020E04420F044
:1014100078B0E6B4640690130674FAF078B0E6B4D7
:101420006416901304E030E1F390130AE0900F0289
:10143000F0901304E030E3E4900F02E0FEB45502B4
:101440008004EEB4950678B276AA8022EEB4D70F67
:10145000901020E054DFF00000E04420F080BD90C8
:101460000F02E0B4FEB643D80143D80280FE9010CC
:1014700020E054DFF0901300EFF00075F7010075E5
:0E148000F7010075F7010075F70100021C3836
:10148E00E478B2F6FF7E077C147D00F5308D828CF9
:10149E0083E4938F828E83F00FBF00010E0DBD008B
:1014AE00010C0530E530B4FFE4901304E020E0F9C0
:1014BE0030AF08C2AF0000000080F5901000E0448D
:0514CE0080F002140093
:1019C7000706700130010705700C30010711700020
:1019D7003001071270003001070430000710300093
:1019E700070F3001F4090043413F3D3B3C58644435
:1019F70042403E0F295965382A701D10025A6671F8
:101A07002C1F1E11035B672E2D201205045C6839FD
:101A17002F211413065D693130232215075E6A7280
:101A270032241608095F6B332517180B0A606C34CC
:101A3700352627190C616D7328741A0D626E3A36B4
:101A47001C1B752B637655567778797A0E7B7C4FFE
:101A57007D4B477E7F6F5253504C4D480145574E43
:061A6700514A37494654C4
:1014D300900068E004F0125A07901304E020E074CF
:1014E300E020E17090007CE0D39400400812170BD9
:1014F30012165B801C90007EE0D39400401A1218F1
:101503007A900F03EFF012184F900F03E0FD1217BC
:1015130036900067E004F0222004391249DF900F6F
:1015230003EFF0C212E0FFB4FF08AE3FEE54EFF555
:101533003F22A24FE433900F04F0C24F7838E6FE07
:101543001313543F20E00D900F04E0FD121940EFF8
:041553006002D24F11
:011557002271
:10155800901304E020E05AE020E15690007CE0D3AC
:101568009400400812170B12165B801C90007EE056
:10157800D39400401812187A900F05EFF012184F04
:10158800900F05E0FD1217369000678010125A5E22
:10159800789AE670101215BA500790008CE004F0A3
:1015A80022789A7601789AE6B401027602E4789A6B
:0115B800F63C
:0115B900220F
:1015BA007886E620E00CE6C4131313540120E002F7
:1015CA00C322783AE6C4131313540130E0377885FE
:1015DA00E67002C322901304E020E007E020E10352
:1015EA00300502D322E4FF123DFD7D401217367802
:1015FA0084067984E7C37885964008E47884F67887
:10160A0085F622D322E4FF123C7340012290130490
:10161A00E020E007E020E103300502D322E4FF12D4
:10162A003DFDE4FD121736788406789FE6C3133031
:10163A00E0097884E6C39404500A227884E6C394C5
:0D164A0003500122E47884F67885F6C3226F
:02165700C322AC
:02165900C322AA
:05165B00900F06EFF006
:10166000A37402F0A3E4F0901304E030E10280419F
:10167000901304E020E104E030E015900F08E0242E
:10168000FFF0900F07E034FFF0E07002A3E070D7A6
:10169000901304E04410F0E054DFF0901300E030C9
:1016A00000054401F0800354FEF0901304E030E1A3
:1016B0000B900F06E0FF1216E77F0022900F06E066
:0616C000901306F07F010B
:0116C6002201
:1016C700901304E04410F0E054DFF0901300E03092
:1016D70000054401F0800354FEF0901306EFF0225A
:1016E70090007CE0D39403501A90007CE0540324CC
:1016F70070F582E43400F583EFF090007CE004F0AD
:04170700125A072249
:10170B0090007DE054032470F582E43400F583E00F
:10171B00FF90007DE004F090007CE0FE90007DE007
:0A172B00C39E4006E4F090007CF03D
:011735002291
:08173600900F09EFF0A3EDF0A4
:10173E00A37402F0A3E4F0901304E030E1028027DA
:10174E00901304E020E104E030E015900F0CE0244B
:10175E00FFF0900F0BE034FFF0E07002A3E070D7C3
:10176E00901304E030E012900F09E0FFA3E0FD12A9
:10177E00181A900F09E0F4FF22901304E0300205CE
:10178E004404F0800354FBF0783AE6C41313135468
:10179E000130E01B901304E0543BF0C083C082E0A4
:1017AE00FF900F0AE02420FEEF4ED082D083F090FF
:1017BE001304E054EFF0E04420F0901300E0300109
:1017CE00054402F0800354FDF0900F09E0FF9013E2
:0A17DE0008F0121DB3900F09E0FFA0
:0117E80022DE
:1017E900901304E03002054404F0800354FBF090A8
:1017F9001304E054EFF0E04420F0901300E03001CE
:10180900054402F0800354FDF0901308EFF0021D27
:01181900B31B
:10181A0090007EE0D39403502B90007EE054032482
:10182A0074F582E43400F583EFF090007EE054030F
:10183A002478F582E43400F583EDF090007EE0042C
:05184A00F0125A4722D4
:10184F0090007FE054032474F582E43400F583E0C4
:10185F00FF90007FE004F090007EE0FE90007FE0BC
:0A186F00C39E4006E4F090007EF0F6
:01187900224C
:10187A0090007FE054032478F582E43400F583E095
:02188A00FF223B
:10188C00901202E04401F0901204E04401F0A3E055
:10189C004401F0E4FF7C197DC7901200E4F08D82C6
:1018AC008C8393901201F0E4900F0DF0A3F0901242
:1018BC0005E030E21D900F0EE004F07006900F0D65
:1018CC00E004F0D3900F0EE09400900F0DE0940123
:1018DC0040DC0DBD00010C9012007401F08D828C67
:1018EC0083E493901201F0E4900F0DF0A3F09012AA
:1018FC0005E030E21D900F0EE004F07006900F0D25
:10190C00E004F0D3900F0EE09400900F0DE09401E2
:10191C0040DC0DBD00010C0FEF641360030218A531
:10192C00901202E054FEF0901204E054FEF0A3E09A
:03193C0054FEF066
:01193F002285
:041940001219442212
:05194400900F0FEDF013
:10194900E4A3F020060904F0E4900F0FF08026903C
:101959000F0FE0FD12198DEFB4FF08900F0F7401FE
:10196900F08012EF7007900F0F04F08008E4900FD9
:101979000FF0A304F0900F10E060031216C7900F48
:031989000FE0FF6D
:01198C002238
:10198D00E4FEEFB4F0047FFF8025EF7003FF801FAE
:10199D00EF20E7099019ED93FF7E018012EFB483DC
:1019AD00067F417E018008EFB484047F547E01EEF2
:0919BD006007ED6004EF4480FFB7
:0119C60022FE
:101BDE00200D03200A01200684130200130048156D
:101BEE00064115164117001117011117021117049E
:101BFE00041705041706041D02011D05041900082B
:101C0E001900001901001905801901211A000F1A77
:101C1E000100104510441043104810471046104B59
:0A1C2E00104A1049104E104D104CE2
:101A6D00121AEC1268EA121AB3125A271248F91216
:101A7D001B11121B3E121B5A121BDD126F719000AF
:101A8D00007411F0900002740BF090000374EDF0EF
:101A9D00E4900004F090000574C0F0E4900006F0AE
:011AAD002216
:051AAE00D2AAD2AF2214
:101AB300E4FFEF75F003A424DEF582E4341BF58321
:101AC300E493FC740193FD78BEECF608EDF6EF7534
:101AD300F003A424E0F582E4341BF583E4938D82C0
:081AE3008C83F00FEFB416CA6A
:011AEB0022D8
:101AEC007F20900004AD82AC83C3ED94FCEC940F8A
:101AFC005005E4F0A380EEEFC394D05007A807E4A0
:041B0C00F60F80F35D
:011B100022B2
:101B11007521FFE4F52078B47622F524F5299000AB
:101B210059F090005AF090005BF090005CF0E540B5
:0D1B3100540FF54054F0F540D231025A0334
:101B3E00E4F526F52790001AF090001BF090002A8D
:0C1B4E00F090002BF0F53EF53FF525224D
:031B5A00024261E3
:101B5D00900F11ECF0A3EDF0AB07EB75F006A4249C
:101B6D0020F582E4341CF583E493FE740193F58231
:101B7D008E837480F0900F11E0FFEB75F006A424B6
:101B8D0022F582E4341CF583E493FC740193F58211
:101B9D008C83EFF0900F11E0A3E0FFEB75F006A43E
:101BAD002424F582E4341CF583E493FC740193F54D
:101BBD00828C83EFF0EB75F006A42420F582E434DB
:101BCD001CF583E493FE740193F5828E83E4F02279
:011BDD0022E5
:101E680030861DAA14D3155831FA100F6FFF49B7E1
:101E780075A462FD354E5ABA6E826F1A1DB11DB235
:101C38007581D078B2E6B4AA157838E630E00F900E
:101C48001000E0547FF0D2AFE478B2F6801D901017
:101C580000E0547FF0D2AFE478B2F6A3743FF0907E
:101C68001007740FF0121A6D121AAE121BDD121C37
:101C7800F2121CE80000121C94500B75870100003A
:0C1C8800000000000000D23AD23180E2DF
:101C9400126E844002C322E526D394005006E52741
:101CA40094004002C3227838E620E002D322900058
:101CB4007CE0D39400500890007EE094004002C37E
:101CC40022900088E0C394645002C322900098E0FC
:101CD400C394645002C3229000A8E0C394645002E9
:041CE400C322D32222
:0A1CE800901107E04403F0D2AF2290
:101CF200021D9CE53745367003021DA91231FDE431
:101D0200F530E53720E00FE536C313F536E5371336
:101D1200F537053080ECE530C394085015E53054B2
:101D220007FF7401A807088002C333D8FCF45226C7
:101D3200803A1231FDE5305407FF7401A80708808C
:101D420002C333D8FCF45227783AE6C4131313546F
:101D52000130E0187885E6D39400500E7895E69429
:101D620000500778A5E694004002D233AF30EF2549
:101D7200E02468F582E4341EF583E493FE74019353
:101D8200AA06F9128581901500E030E104D235806F
:101D920009901304E030E102D230AF27EFAD26F50F
:081DA20036EDF537021CF522B5
:071DAA0078BCE6547FF6222D
:011DB100220F
:011DB200220E
:101DB3007DFF7C0E8D828C83E0F9E004F0E0B4FFBC
:101DC3002CE4F0900F13740EF0A3E4F0FE900F13C5
:101DD300E0FAA3E0F5828A83E4F0900F14E004F0C4
:101DE3007006900F13E004F00EEEB4FFE0AE01E9CD
:0C1DF3002400FDE4340E8D82F583EFF037
:011DFF0022C1
:0B1E0000900F15EBF0A3EAF0A3E9F04F
:101E0B0078BE760E087601E4900F18F0900F18E06C
:101E1B00FFC3940F5033900F15E0FBA3E0FAA3E040
:101E2B00F98F827583001284ADFF900F18E0FE7856
:101E3B00BEE6FC08E68C832EF582E43583F583EF52
:101E4B00F0900F18E004F080C378BE760E08760091
:0C1E5B0018E6FE08E6F5828E8374FFF0A6
:011E67002258
:1024EF009F9F9F9F808182838485869F878A8B9FF2
:1024FF0000C000C2010200C000C3040800C000C435
:10250F00102000C000C5408000C100C6010200C1FC
:10251F0000C7040800C100C8102000C100C94080D6
:101E8800901901E054FEF0E04480F0EF1460131460
:101E9800601914601F24037022ED4480901904F027
:101EA8008019ED4480901906F08010ED4480901957
:101EB80009F08007ED448090190CF0901900E05467
:101EC800FBF0E04402F0E04401F0A3E04401F090AC
:101ED80000D374FFF0901900E020E05E9000D3E09A
:101EE80014F0EF7012901904E020E74E9000D3E050
:101EF80070E39019048040EFB40112901906E020B5
:101F0800E7389000D3E070CD901906802AEFB4022C
:101F180012901909E020E7229000D3E070B79019D9
:101F2800098014EFB4031390190CE020E70C90001B
:0B1F3800D3E070A190190C741FF02280
:101F43009000D2E0700A12216E9000D27405F02244
:101F5300901900E030E03C901906E0FF901908E08A
:101F6300FD901907E0FB121F9D901909E0FF9019DE
:101F73000BE0FD90190AE0FB121F9D90190CE0FF86
:101F830090190EE0FD90190DE0FB121F9DE49000E7
:0A1F9300D2F0229000D2E014F022F8
:101F9D00EF20E70302216DEF540FB40E0040030252
:101FAD00216D901FB6F8282873021FE0022002024F
:101FBD0020240220440220640220840220A4022056
:101FCD00C602216D02216D0220E802210A02212C98
:101FDD0002214EEDFEEBFDEDFF9000E1E02FF090C4
:101FED0000E0E03EF0E0C313F0A3E013F09000D06A
:101FFD00E04401F022EDFEEBFDEDFF9000E3E02F5C
:10200D00F09000E2E03EF0E0C313F0A3E013F09097
:10201D0000D0E04402F022EDFEEBFDEDFF9000E577
:10202D00E02FF09000E4E03EF0E0C313F0A3E013E6
:10203D00F09000D0022105EDFEEBFDEDFF9000E7E5
:10204D00E02FF09000E6E03EF0E0C313F0A3E013C4
:10205D00F09000D0022127EDFEEBFDEDFF9000E9A1
:10206D00E02FF09000E8E03EF0E0C313F0A3E013A2
:10207D00F09000D0022149EDFEEBFDEDFF9000EB5D
:10208D00E02FF09000EAE03EF0E0C313F0A3E01380
:10209D00F09000D0022169EDFEEBFDEDFF9000ED1B
:1020AD00E02FF09000ECE03EF0E0C313F0A3E0135E
:1020BD00F09000D0E04440F022EDFEEBFDEDFF90FE
:1020CD0000EFE02FF09000EEE03EF0E0C313F0A340
:1020DD00E013F09000D0E04480F022EDFEEBFDED3A
:1020ED00FF9000D9E02FF09000D8E03EF0E0C31350
:1020FD00F0A3E013F09000D1E04404F022EDFEEBEC
:10210D00FDEDFF9000DBE02FF09000DAE03EF0E017
:10211D00C313F0A3E013F09000D1E04408F022EDDA
:10212D00FEEBFDEDFF9000DDE02FF09000DCE03EDA
:10213D00F0E0C313F0A3E013F09000D1E04410F0F1
:10214D0022EDFEEBFF9000DFE02FF09000DEE03E91
:10215D00F0E0C313F0A3E013F09000D1E04420F0C1
:01216D00224F
:10216E00901901E054FEF09019007483F0A3E0542E
:10217E00FEF0901905E04480F0901901E054DFF074
:10218E00901906E0FF7D011221D0901906EFF09014
:10219E001909E0FF7D021221D0901909EFF0901974
:1021AE000CE0FF7D031221D090190CEFF090190076
:1021BE00E054FBF0E04402F0E04401F0A3E04401FF
:0221CE00F022FD
:1021D000AE07ED25E025E024EFF582E43424F58315
:1021E000E493540FFFEE540FFCB5071AED25E025DC
:1021F000E024F0F582E43424F583E493FBB49F03F8
:102200007F9F22AF0322ED25E025E024F0F582E454
:102210003424F583E493540F6C7019ED25E025E028
:1022200024F1F582E43424F583E493FCB49F028026
:1022300035AF0422ED25E025E024F1F582E43424D5
:10224000F583E493540FFFEE540F6F7019ED25E002
:1022500025E024F2F582E43424F583E493FEB49F70
:10226000028003AF0622ED25E025E024EFF582E4AD
:082270003424F583E493FF22FE
:0A227800900F19EFF0A3EDF0AE0394
:10228200EB5407FE75F006A424FFF582E43424F52E
:1022920083E493FC740193FDAB06EE75F006A4246F
:1022A20001F582E43425F583E493FB740193900FE6
:1022B2001DCBF0A3EBF0EE75F006A42403F582E447
:1022C2003425F583E493F9EE75F006A42404F5822F
:1022D200E43425F583E493900F1FF0900F1AE0FE8B
:1022E200900F19E06E707B8D828C83E0FE900F1F41
:1022F200E0FBEE5B70618D828C83E059701B900F66
:102302001CE0FFA3E0FAA3E0F5828A83EFF08D825E
:102312008C83E049F07F0180737F01900F1DE0FA0A
:10232200A3E0FBF5828A83E014F08B828A83E0705B
:102332005B8D828C83C083C082E0FF900F1FE0FE22
:10234200EF4ED082D083F08D828C83E0FFE9F4FEE1
:10235200EF5EF07F0280358D828C83E049F07F034F
:10236200802A900F1CE0FFA3E0FAA3E0F5828A83A3
:10237200EFF08D828C83C083C082E0FF900F1FE05C
:0C23820029F4FEEF5ED082D083F0E4FF6F
:01238E00222C
:10238F00EFFE7C00E42DFFEC3E900F22F0A3EFF068
:10239F00900F22E07002A3E0600FD3900F23E09420
:1023AF00FF900F22E0943F4004E4FEFF22C3900F02
:1023BF0023E09480900F22E0940050057E277F0F3A
:1023CF0022900F247402F0A3740EF0900F22E0FC01
:1023DF00A3E0FD900F24E0FEA3E0FF1284DAEFC428
:1023EF0054F0900F20F0A3E4F0900F22E0FCA3E054
:1023FF00FD900F24E0FEA3E0FF1284DAEDC4F85441
:10240F000FC868FFECC454F048FEEF2406FFE43E0B
:10241F00900F24F0A3EFF0900F22E0FCA3E0FD90CB
:10242F000F24E0FEA3E0FF1284DAEFFE900F21E00D
:10243F002400F0900F20E03EF0900F22E0FCA3E08C
:10244F00FD900F24E0FEA3E0FF1284DAEDC4F854F0
:10245F000FC868FFECC454F048FEEF240EFFE43EB3
:10246F00900F24F0A3EFF0900F22E0FCA3E0FD907B
:10247F000F24E0FEA3E0FF1284DAEFC4F8540FC874
:10248F0068FFEEC454F048FE900F21E02FF0900F3C
:10249F0020E03EF0900F22E0FCA3E0FD900F24E03F
:1024AF00FEA3E0FF1284DAEDC4F8540FC868FEEC07
:1024BF00C454F048900F24F0A3CEF0900F22E0FC0C
:1024CF00A3E0FD900F24E0FEA3E0FF1284DA900F4B
:0F24DF0021E02FF0900F20E03EF0E0FEA3E0FFA1
:0124EE0022CB
:1030FA006A2A6A2B6A2C6A2D6A2E6A2F6A366A3DF8
:10310A006A3E6A3F6A406A416A426A4F6A506A5135
:10311A0025D925E425F126096A526A596A5A6A5B51
:10312A006A5C6A5D6A5E6A5F6A606A616A626A6349
:10313A006A6B29046A736A7B290529192958298126
:10314A0029842987299229A729AC29AD29B86A7C1B
:10315A006A7D6A7E6A7F6A806A816A886A896A8AFF
:10316A006A8B6A8C6A8D6A8E6A8F6A906A916A9291
:10317A0029C16A936A946A956AA16AA26AAA6AAB21
:10318A006AAC6AAD6AAE6AAF6AB06AB16AB26AB369
:10319A0029C629D829DB29E62A5A6AB46ABA6ABB37
:1031AA006ACA6ACB6ACC6ACD6ACE6ACF6AD06AD159
:1031BA002DE76AD26AD36AD46AD56AD66AD76AD838
:1031CA006AD96ADA6ADB6ADC6ADD6ADE6ADF6AE0C1
:1031DA00252F252F252F252F257225722572257239
:1031EA002F9C2FB72FD22FED30083023303E305985
:10252F00E560541F24ED601214601624FE60191428
:10253F00601D24177021AF20801A900059E0FF8092
:10254F001390005AE0FF800C90005BE0FF80059035
:10255F00005CE0FF0216C7E4FF1216C790006FE0A1
:03256F0004F02253
:10257200122DEC503AE4F561E560541F24ED60132E
:1025820014601524FE60161460182417701BAF62C5
:102592000225B2900059800D90005A800890005B8D
:1025A200800390005CE562F02290006FE004F0226C
:1025B2008F203005051229818003122984300405F9
:1025C2001229AD80031229B8901304E030020444AA
:0725D20004F02254FBF0228B
:0B25D900122DEC50057F241228E42294
:0D25E400122DEC5007AD62E4FF12262122FB
:1025F100122DEC50127896E630E007AD627F0102B1
:0826010026217FA41228E42227
:10260900122DEC501278A6E630E007AD627F020287
:0826190026217FE41228E422CF
:08262100900F26EFF0A3EDF08D
:10262900E47887F67897F678A7F6900F26E0249154
:10263900FF121DB3900F27E0FF121DB3901700740E
:1026490011F0901704E4F09017017411F090170538
:10265900E4F09017027411F0901706E4F0900F2639
:10266900E0FF7008900F297440F0800FEF900F2958
:10267900B401057480F0800374C0F0E55BD3940065
:102689004057E55B64E87022F55B900F27E0FD7B1E
:10269900FA123A77E433900F28F0A3E0FD7FFA129B
:1026A9001736900F27E0788FF622E55B64F37025E3
:1026B900F55B900F26E0FFA3E0FD7BFA123A77E481
:1026C90033900F28F0A3E0FD7FFA121736900F27F9
:1026D900E0788EF622E4F55B22E4F55B900F27E0C3
:1026E900FD2418603214603D24F770030227D714C3
:1026F900700302281F147003022833147003022880
:102709005124F6700302286F24196003022893905C
:102719000F26E0FF02282A755BE8900F26E0FFA349
:10272900E0FD02282A900F26E0FFA3E0FD7BFA12C4
:102739003A77E433900F28F0A3E0FD7FFA121736B9
:10274900900F26E0FF123C09900F26E075F00BA4CC
:102759002431F582E5F03443F583E493FE74019363
:10276900F5828E83E0FF900F29E0FD121736900F56
:1027790026E0FF123C09900F26E075F00BA42431E6
:10278900F582E5F03443F583E493FE740193F58211
:102799008E83E0FF900F29E0FD121736900F26E097
:1027A900FF123C09900F26E075F00BA42431F58245
:1027B900E5F03443F583E493FE740193F5828E8347
:1027C900E0FF900F29E0FD121736E40228A2900FCE
:1027D90026E0FFA3E0FD7BFA123A77E433900F2855
:1027E900F0A3E0FD7FFA121736900F26E0FF123CA6
:1027F90009900F26E075F00BA42431F582E5F03439
:1028090043F583E493FE740193F5828E83E0FF9090
:102819000F29E0FD806B755BF3900F26E0FFA3E0C5
:10282900FD7BFA123A77E433806F900F26E0FFA31D
:10283900E0FD7BFA123A77E433900F28F012393E23
:10284900D240D241D2428055900F26E0FFA3E0FD4D
:102859007BFA123A77E433900F28F012393EC240DE
:10286900C241C2428037900F29E0FD7FFA12173624
:10287900900F29E0FD7FAA121736900F29E0FDE499
:10288900FF121736E4900F28F022900F26E0FFA3DD
:10289900E0FD7BFA123A77E433900F28F0900F2885
:1028A900E06007A3E0FD7FFA802D900F26E0FF127C
:1028B9003C095026900F26E075F00BA42431F582CF
:1028C900E5F03443F583E493FE740193F5828E8336
:0A28D900E0FF900F29E0FD12173612
:0128E30022D2
:1028E400901304EFF0901300E03001054402F080EF
:1028F4000354FDF07F147E00125A817FFE0217E913
:0129040022B0
:10290500783CE61313543F30E0047FFA80027FF1F0
:0429150012165B2219
:0D291900122DFA5004E4F555221229262251
:10292600E555700BE5627007783CE654FBF622E548
:1029360055C394085011AF5574502FF582E43400F6
:10294600F583E562F00555E5627006783CE64404D9
:02295600F62267
:10295800783CE61313543F30E019D24CE490005809
:10296800F0E654FEF6901304E054EFF0900059E0BE
:09297800FF8002E4FF12165B224D
:03298100D205225A
:03298400C2052267
:0B298700783AE6547FF6E4FF02165B8E
:10299200D202783AE6547FF67F5512165B90160201
:0529A200E04420F022DA
:0529A700E4FF02165BD5
:0129AC002208
:0B29AD00D204783CE64401F60248EB3F
:0929B800C204783CE654FEF6224C
:0529C1007FBF02165B60
:1029C600755FC1901602E030E503435F02AF5F0218
:0229D600165B8E
:0329D800D21022F8
:0B29DB00122DEC5005AF621216C7224F
:0B29E600122DEC5005C2051229F12251
:1029F1007FD3121DB3AF62121DB3E56224AA601228
:102A010024B2601514602424B57034755C017FF024
:102A11008004055C7F560217E9E55C640270237F40
:102A2100111217E9783AE64480800FE55CB402128E
:102A31007F111217E9783AE6547FF6E4F55C22E457
:102A4100F55C783AE6C4131313540120E00AE55CFF
:092A51007006FDAF621217362277
:102A5A00122DEC500AE55D7003022A6A122CFA2242
:102A6A00E4900F2AF07FD4121DB3AF62121DB3E4B3
:102A7A0090007FF090007EF07887F67897F678A736
:102A8A00F6F55DE56212855B2AC6E62AD3E72ADFF8
:102A9A00E82AE5E92B4AEA2B5CEB2B96EC2BA8EE0D
:102AAA002BBAF02BCCF22C1DF32C2BF42C41F52C49
:102ABA005AF62C6AFE2C70FF00002CBA7FE61241EF
:102ACA0017789FE654EF022B587FE7124117789F39
:102ADA00E644108079755DE8022C627BFA7DE9E4B0
:102AEA00FF123A77E433900F2AF0E4FD7FFA1217C7
:102AFA0036E4FF123C095046904331E493FE7401D8
:102B0A0093F5828E83E0FFE4FD12181AE4FF123C6B
:102B1A0009904331E493FE740193F5828E83E0FFBA
:102B2A00E4FD12181AE4FF123C09904331E493FEC3
:102B3A00740193F5828E83E0FFE4FD12181A804433
:102B4A007FEA124117789FE65497F6E64408F602A0
:102B5A002C62789FE6C41313540330E019E4FD7F16
:102B6A00FA121736E4FD7F0812181AE4FDFF12184C
:102B7A001AE4FDFF800BE4FD7FFA121736E4FD7FAD
:102B8A00FC12181AE4900F2AF0022CCF7FEC1241A3
:102B9A0017789FE65497F6E6547FF6022C627FEE8A
:102BAA00124117789FE65497F6E64480F6022C62A3
:102BBA007FF0124117789FE65497F6E64440F602F2
:102BCA002C627BFA7DF2E4FF123A77E4FD7FFA1277
:102BDA001736E4FF123C09904331E493FE740193E3
:102BEA00F5828E83E0FFE4FD12181A904331E493D4
:102BFA00FE740193F5828E83E0D39402789FE640B7
:102C0A000C4402F67886E64402F6022CCF54FDF60E
:102C1A00022CA07BFA7DF3E4FF123A77755DF3800C
:102C2A00377FF412411712393E900F2A7401F012BD
:102C3A002984D240022CCF7FF512411712393E90D7
:102C4A000F2A7401F0122981C240C241C242807522
:102C5A007FF6124117122CEB900F2A7401F080654F
:102C6A00E4FD7FFC8045789FE654FDF612393EE488
:102C7A0090007FF090007EF0122CEB122981E4F58F
:102C8A005E7BFA7DFFFF123A77E4FD7FFA500F125E
:102C9A001736788776027886E654FDF6802712176B
:102CAA0036E4FD7FAA121736E4FDFF1217368015A7
:102CBA00E4FD2061097FFE121736D26180077FFC8E
:102CCA00121736C261900F2AE06009E4FD7FFA12FA
:102CDA001736C26190007EE0D394004003125A472F
:012CEA0022C7
:0F2CEB00789FE64408F6788D7602788C7664221E
:102CFA00AF62121DB3E55D64E87024F55DE562D349
:102D0A0094034006E4FD7FFE8012788DA6627FE878
:102D1A00124117AF62124117E4FD7FFA021736E536
:102D2A005D64F36003022DE3788CA6627BFAAD62E0
:102D3A00FF123A77E55E14601C146026146033149F
:102D4A00603B14604324057048788CE664C870417F
:102D5A00755E01803C788CE6B46405755E0280314C
:102D6A00800B788CE6B45005755E038024E4F55E2A
:102D7A00801F788CE6B4C819755E048014788CE6D6
:102D8A00B4C80E755E058009788CE6B45003755E8A
:102D9A0006788CE664C86020E66464601BE6B4507A
:102DAA00028015788CE6643C600EE664286009E6C9
:102DBA0064146004E6B40A0BE4FD7FFA121736C203
:102DCA00608016E4FD2060087FFE121736D260226A
:0D2DDA007FFC121736C2608000E4F55D2218
:052DE700E4FF02165B91
:0E2DEC00E5617005756101C322E4F561D32233
:0D2DFA00E5617005756101C3220561D322FA
:102E0700900F2B7402F0A3E4F0901304E030E1106C
:102E1700E030E3037F002290130AE0F5627F01228E
:102E2700900F2CE024FFF0900F2BE034FFF0E070C0
:0D2E370002A3E070D490006FE004F07F0073
:012E4400226B
:102E4500900F2DEFF0E55A605FE55A2410602C24B1
:102E5500FD603124067043900F2DE0F5247FFA12B2
:102E6500165BE4F55A126DD37FED12423AE5245410
:102E750007FF12423AA2219228802A900F2DE0786E
:102E850089F6800C900F2DE0789EF6E6FF12498FAB
:102E95007FFA12165BE4F55A800B7FFE12165B90E3
:102EA500006FE004F0C24A22900F2DE012855B2EE0
:102EB500F0EC2EE5ED2EF2EE2EF6F02F01F22F16A8
:102EC500F32F36F42F3DF52F47F62EF0F72EF0F8B9
:102ED5002EF0F92EF0FA2EF0FB2F58FF00002F727E
:102EE5007FFA12165B755AED022F85805F7FEE80A3
:102EF5005D7FFA12165B755AF0022F857FFA12165E
:102F05005B7FAB1216E73006047F83805B7F4180D1
:102F1500577FFA12165B122E07EF6004789EA662A1
:102F2500789EE6FF12498F7FFA12165BE4F55A8008
:102F35004F12491D7FFA801612491D12497B7FFAEF
:102F4500800C12491D12497B7FFA80027FFA121606
:102F55005B802D12491D12497BE4F525C219125CCF
:102F6500997FFA12165B7FAA1216E780137FFE126D
:102F7500165B90006FE004F0900F2DE090006EF06E
:0D2F850090007CE0D394004003125A072214
:092F92007F0D300D04EF648CFF8B
:012F9B002213
:102F9C00E560540F25E024FAF582E43430F583E43F
:0B2FAC0093FE740193AA06F9028581D0
:102FB700E560540F25E0241AF582E43431F583E403
:0B2FC70093FE740193AA06F9028581B5
:102FD200E560540F25E0243AF582E43431F583E4C8
:0B2FE20093FE740193AA06F90285819A
:102FED00E560540F25E0245AF582E43431F583E48D
:0B2FFD0093FE740193AA06F90285817F
:10300800E560540F25E0247AF582E43431F583E451
:0B30180093FE740193AA06F902858163
:10302300E560540F25E0249AF582E43431F583E416
:0B30330093FE740193AA06F902858148
:10303E00E560540F25E024BAF582E43431F583E4DB
:0B304E0093FE740193AA06F90285812D
:10305900E56020E01D901602E054DFF0E054BFF077
:103069007F407E00125A63901602E04420F0E0444B
:0D30790040F05320FB901304E054FBF022C4
:10308600901304E030E16C901304E030E31AC210B0
:10309600E561D394004009E4F56190006FE004F027
:1030A60090130AE0F5608024E561700330103990D2
:1030B600130AE0F562301014C210E5629016023071
:1030C600E105E04420F022E054DFF022E560C4543C
:1030D6000F25E024DAF582E43431F583E493FE74B7
:1030E6000193AA06F902858190130AE0F562AF62A0
:0430F600122E45222F
:10432B00170017041708170C1106041701170517A8
:10433B0009170D11060317021706170A170E110698
:01434B00026F
:0331FA000232009E
:0331FD000232009B
:103200007838E630E00D901638E0B40406A3E064A8
:10321000046006C240E47887F67887E6701120548F
:103220000E3040507886E6C4540F30E0028045905E
:103230001700E030E337901708E030E310901700F4
:103240007417F0E4900089F0900088F022900088D4
:10325000E0D394645003023319D2629017007411C2
:10326000F0E490008AF090008974FCF022E4FF12F0
:103270003C73500C9017007411F0901704E4F02286
:10328000901704E4F0901700E04417F0901708E05E
:1032900030E3669017007411F090170CE090008AEC
:1032A000F020633B7887E6D39400400A16E0FF7D68
:1032B00040121736802990008AE0FDE4FF123CE2BC
:1032C0007886E64420F690008DE004F0E4FF123C9E
:1032D00073400C901704E4F0901700E04417F0904E
:1032E000008AE064FA6009E064FE6004E0B4FC0275
:1032F000C263C262E4900088F030630B900088E003
:10330000D394644002C2637839E6C41313135401A2
:0A33100030E006783AE64480F62229
:10331A007838E630E00D90163AE0B40406A3E0648B
:10332A00046006C241E47897F67897E67011205552
:10333A000E3041507896E6C4540F30E00280459032
:10334A001701E030E337901709E030E310901701D6
:10335A007417F0E4900099F0900098F02290009889
:10336A00E0D394645003023433D264901701741189
:10337A00F0E490009AF090009974FCF0227F011218
:10338A003C73500C9017017411F0901705E4F02269
:10339A00901705E4F0901701E04417F0901709E040
:1033AA0030E3669017017411F090170DE090009ABF
:1033BA00F020653B7897E6D39400400A16E0FF7D3B
:1033CA0080121736802990009AE0FD7F01123CE2B4
:1033DA007896E64420F690009DE004F07F01123CC6
:1033EA0073400C901705E4F0901701E04417F09031
:1033FA00009AE064FA6009E064FE6004E0B4FC024A
:10340A00C265C264E4900098F030650B900098E0C1
:10341A00D394644002C2657839E6C4131313540185
:0A342A0030E006783AE64480F6220E
:103434007838E630E00D90163CE0B40406A3E0646E
:10344400046006C242E478A7F678A7E67011205615
:103454000E30425078A6E6C4540F30E00280459006
:103464001702E030E33790170AE030E310901702B8
:103474007417F0E49000A9F09000A8F0229000A83E
:10348400E0D39464500302354DD266901702741150
:10349400F0E49000AAF09000A974FCF0227F0212DC
:1034A4003C73500C9017027411F0901706E4F0224C
:1034B400901706E4F0901702E04417F090170AE022
:1034C40030E3669017027411F090170EE09000AA92
:1034D400F020673B78A7E6D39400400A16E0FF7D0E
:1034E400C012173680299000AAE0FD7F02123CE248
:1034F40078A6E64420F69000ADE004F07F02123C8A
:1035040073400C901706E4F0901702E04417F09013
:1035140000AAE064FA6009E064FE6004E0B4FC021E
:10352400C267C266E49000A8F030670B9000A8E080
:10353400D394644002C2677839E6C4131313540168
:0A35440030E006783AE64480F622F3
:10354E00901639E0B4040A901638E0B4040312352C
:02355E006022E9
:1035600090008FE012855B359B0035A60135DD02AA
:10357000364140364C41366742369E5037197137D6
:103580003278373580375283377F8F37B19037B3F2
:103590009137D7B03806B80000380DC25490008F6C
:1035A0007480F0023812789BE6D3940040011690A4
:1035B0000088E0D3946440177DF2E4FF1239A3E45D
:1035C000FF123969D25490008F7402F002381278D9
:1035D00085E6D39400500302381202368D7880E6D7
:1035E00064AB601208E664AB600C08E664AB60068E
:1035F00008E664AB70257880E66483601108E664B1
:1036000083600B08E66483600508E6B4830DE4FF7D
:1036100012396990008F7440F0C322900088E0C393
:1036200094325003023812C2547885E6D394004095
:103630000DE4FF12396990008F7480F0C3220238C4
:103640000DC24090008F7441F0023812E4FF123E28
:1036500082500790008F7442F02290008F7401F026
:10366000C262C26302381290008974F4F0E0FD7BFC
:10367000FAE4FF123A77501DE4FF1239697886E6C2
:103680004480F6E64440F690008F7450F0E4FF1258
:10369000396902381290008F7401F0023812D2405A
:1036A000124AAC50237984E7788566601BE4FF12E8
:1036B0003DFD124A407884067984E7C378859640B8
:1036C00007E47884F67885F6900088E0D394784013
:1036D0002B206328D263C26290008974F1F09017A6
:1036E00000741DF0900089E090170CF090170074A2
:1036F0001CF0741EF0E4900088F0D3223062069033
:10370000008F7478F07886E6C4540F20E003023806
:103710001290008F7471F0C3227886E6C4540F3083
:10372000E002C322E4900088F090008F7450F00211
:103730003812023806C240C2547886E64401F6E4E4
:10374000FF1239697886E64408F690008F748FF08E
:10375000D322E4FF123969E4FF12408C501890170D
:103760000CE090008AF0E07886B40406E64404F6A3
:103770008004E654FBF690008F748FF0023812C27A
:1037800062C26390008974F4F0E0FD7BFAE4FF12FA
:103790003A77500A7886E64440F6E64480F6788622
:1037A000E64480F6E4FF12388590008F7491F08033
:1037B00061C322C262E4900088F0FF123969900070
:1037C0008F7490F0204103304202D240301A437887
:1037D00086E64410F6803B90008974F4F0E0FD7BAF
:1037E000FAE4FF123A77900089E07012900088F0B6
:1037F0007884F67885F690008F7490F080149000AD
:103800008F74B8F0800CE4FF1238F28005E4900069
:043810008FF0C32250
:02381400C322CD
:02381600C322CB
:10381800901102C083C082E0FEEF75F00BA424353E
:10382800F582E43443F583E493FD7401A805088028
:1038380002C333D8FCFD4ED082D083F0901106E04D
:103848004DF0EF75F00BA4242DF582E43443F58395
:10385800E493FC740193F5828C837404F0EF75F0A3
:103868000BA4242BF582E43443F583E493FC740120
:0C38780093F5828C83E020E3037417F0CA
:013884002221
:10388500EF75F00BA4242BF582E43443F583E49320
:10389500FC740193F5828C837411F0EF75F00BA421
:1038A500242DF582E43443F583E493FC740193F508
:1038B500828C83E4F0901102C083C082E0FEEF7534
:1038C500F00BA42435F582E43443F583E493FD74C9
:1038D50001A805088002C333D8FCFD4ED082D083F1
:0D38E500F0901106E0FEEDF4FFEE5FF02222
:1038F200EF700DC244C251756C807C007D80801CCB
:10390200EFB4010DC245C252756C907C007D90806F
:103912000BC246C253756CA07C007DA0E4FF8D8271
:103922008C83E4F00DBD00010C0FEFB410F0E4FF46
:0B393200A86CE4F6056C0FEFB409F57B
:01393D002267
:10393E007886E630E005E4FF1239697896E630E0E5
:10394E00057F0112396978A6E630E0057F0212394B
:0B395E0069E490007EF090007FF022F2
:10396900EF700B756C807884F67885F6801EEFB45D
:10397900010C756C90E47894F67895F6800EEFB4A6
:10398900020A756CA0E478A4F678A5F6E4FFA86CA1
:09399900E4F6056C0FEFB404F52F
:0139A2002202
:1039A300900F2FEDF0900F2EEFF01238857F191244
:1039B30010F8900F2EE0FF75F00BA4242BF582E492
:1039C3003443F583E493FC740193FDF5828C837493
:1039D3001DF0900F2FE0FEEF75F00BA42431F5825C
:1039E300E43443F583E493FA740193F5828A83EE16
:1039F300F08D828C83741CF0900F2EE0FF75F00B1A
:103A0300A4242BF582E43443F583E493FC740193FB
:103A1300F5828C83741EF0901102C083C082E0FE95
:103A2300EF75F00BA42435F582E43443F583E49376
:103A3300FF7401A807088002C333D8FCFF4ED0826D
:103A4300D083F0901106E04FF0900F2EE0FF75F059
:103A53000BA4242DF582E43443F583E493FC740131
:0B3A630093F5828C837404F0023B9307
:093A6E00900F3AE0FF7BFA7DF3B2
:103A7700900F31EDF0A3EBF0900F30EFF012388597
:103A87007F191210F8900F30E0FF75F00BA4242B6C
:103A9700F582E43443F583E493FC740193FDF582E6
:103AA7008C83741DF0900F31E0FEEF75F00BA424AA
:103AB70031F582E43443F583E493FA740193F58294
:103AC7008A83EEF08D828C83741CF0900F30E0FFB8
:103AD70075F00BA4242BF582E43443F583E493FCBF
:103AE700740193F5828C83741EF0901102C083C019
:103AF70082E0FEEF75F00BA42435F582E43443F53C
:103B070083E493FF7401A807088002C333D8FCFF3E
:103B17004ED082D083F0901106E04FF0900F301214
:103B27003B77504A900F30E0FF7006900089F08095
:103B370010EFB40107E4900099F08005E49000A924
:103B4700F0123C095028900F30E075F00BA4243197
:103B5700F582E43443F583E493FE740193F5828E92
:103B670083E0FF900F32E0FEEFB50602D322C322B7
:103B7700E0FF75F00BA4242DF582E43443F583E4CC
:0C3B870093FC740193F5828C837404F0AD
:053B9300900F33EFF07C
:103B9800C268E4A3F0C2AB758DE2758B13D28EC2F6
:103BA8008F900F33E0FF14600C047012304416D26B
:103BB80068C244801030450DD268C245800730463F
:103BC80004D268C246306809123885C28FD2ABD396
:103BD80022208E0A758DE2758B13D28EC28F308F9C
:103BE800C0126E83900F34E004F0E0C3941440A533
:0D3BF800900F33E0FF123885C28FD2ABC3AF
:013C0500229C
:033C0600F0E4FFE8
:103C0900900F35EFF0E0FF75F00BA4242BF582E45B
:103C19003443F583E493FC740193F5828C83741720
:103C2900F0901102C083C082E0FEEF75F00BA4246E
:103C390035F582E43443F583E493FF7401A807085A
:103C49008002C333D8FCFF4ED082D083F090110696
:103C5900E04FF0900F35123B77900F35E0FF50059C
:0A3C6900123885D322123885C322D9
:103C7300EF1460250470447886E630E012E6C3133F
:103C830020E00C7885E6C394035002C322D3227844
:103C930085E6C394045046C3227896E630E012E6E4
:103CA300C31320E00C7895E6C394035002C322D3D8
:103CB300227895E6C394045024C32278A6E630E024
:103CC30012E6C31320E00C78A5E6C394035002C3A5
:0F3CD30022D32278A5E6C394045002C322D32241
:103CE200E4900F36F0A3F0EF146059046003023D34
:103CF200977885E654032480F8A605788506900017
:103D02008EE054072480F582E43400F583EDF090D0
:103D1200008EE004F07886E630E0237885E6B40190
:103D2200047888A6057886E6C31320E06190008EA9
:103D3200E05407FFBF0604E02402F0023DE3E4780A
:103D420088023DEE7895E654032490F8A60578950E
:103D52000690009EE054072490F582E43400F58337
:103D6200EDF090009EE004F07896E630E02278953F
:103D7200E6B401047898A6057896E6C31320E00E0F
:103D820090009EE05407FFBF0604E02402F0805139
:103D9200E47898805778A5E6540324A0F8A605781D
:103DA200A5069000AEE0540724A0F582E43400F5A5
:103DB20083EDF09000AEE004F078A6E630E02A78D9
:103DC200A5E6B40106AF0578A8A60778A6E6C31350
:103DD20020E00E9000AEE05407FFBF0604E024028C
:103DE200F0900F377401F08009E478A8F6900F364E
:0A3DF20004F0900F37E06002D233B6
:013DFC0022A4
:103DFD00EF70237884E62480F8E6FE783AE6C41363
:103E0D001313540120E06B7884E670667886E630F3
:103E1D00E06078988026EF6401702A7894E624900B
:103E2D00F8E6FE783AE6C4131313540120E0437804
:103E3D0094E6703E7896E630E0387888E654074E82
:103E4D00FE78A8802878A4E624A0F8E6FE783AE665
:103E5D00C4131313540120E01978A4E6701478A646
:103E6D00E630E00E7898E654074EFE7888E6540763
:043E7D004EFEAF0640
:013E8100221E
:103E8200900F38EFF0123A73400122900F38E0FFA2
:103E92007BFA7D20123A77400122900F38E0FF7BB7
:103EA200FA7DED123A77400122900F38E0FFE524C7
:103EB2005407FD7BFA123A77400122900F38E0FF57
:103EC2007BFA7DF4123A77400122900F38123A7150
:103ED200400122900F38E0FF7BFAE4FD123A77406E
:103EE2000122900F38E0FF123C09900F38E0FF12D8
:043EF2003C09D32292
:103EF600E4FF123FAF5013124143788CE6B4010A37
:103F06009000B0E04402F07F0222E4FF123F2D5001
:103F160013124143788DE6B4470A9000B0E044019D
:073F2600F07F01227F002261
:103F2D00900F39EFF0123885900F39E0FF7BFA7D55
:103F3D00E8123A77400122900F39E0FF7BFAE4FD59
:103F4D00123A77400122900F39E0FF7BFA7DE8129B
:103F5D003A77400122900F39E0FF7BFAE4FD123AE7
:103F6D0077400122900F39E0FF7BFA7DE8123A7716
:103F7D00400122900F39E0FF7BFAE4FD123A7740C1
:103F8D000122900F39E0FF7BFA7DE8123A7740016C
:103F9D0022900F39E0FF7BFAE4FD123A77400122BF
:023FAD00D3221D
:103FAF00900F3AEFF0123885123A6E400122900FBF
:103FBF003AE0FF7BFE7D66123A77400122900F3A7E
:103FCF00E0FF7BFC7D88123A77400122123A6E4067
:103FDF000122900F3AE0FF7BFE7D66123A77400197
:103FEF0022900F3AE0FF7BFCE4FD123A774001226A
:023FFF00D322CB
:10400100900F3BEFF0123885900F3B123A7140014F
:1040110022900F3BE0FF7BFA7DC8123A77400122E4
:10402100900F3B123A71400122900F3BE0FF7BFA67
:104031007D64123A77400122900F3B123A714001A0
:1040410022900F3BE0FF7BFA7D50123A774001222C
:10405100900F3BE0FF7DF21239A3900F3BE0FF127E
:104061003C095025900F3BE0FF75F00BA42431F57E
:1040710082E43443F583E493FC740193F5828C83E9
:0B408100E0B4FA03123C09D322C32272
:10408C00900F3CEFF0123885900F3C123A714001C2
:10409C0022900F3CE0FF7BFA7DC8123A7740012258
:1040AC00900F3C123A71400122900F3CE0FF7BFADA
:1040BC007DC8123A77400122900F3C123A714001B0
:1040CC0022900F3CE0FF7BFA7D50123A77400122A0
:1040DC00900F3CE0FF7DF21239A3900F3CE0FF12F1
:1040EC003C095025900F3CE0FF75F00BA42431F5F2
:1040FC0082E43443F583E493FC740193F5828C835E
:0B410C00E0B4FA03123C09D322C322E6
:10411700E4900F3DF07886E6FEC413131354013084
:10412700E013E630E00FAD077BFAE4FF123A77E4DD
:0B41370033900F3DF0900F3DE024FF9F
:01414200225A
:104143007DE9E4FF1239A3E4FF123C09904331E413
:1041530093FE740193F5828E83E0900F3E123C062A
:10416300904331E493FE740193F5828E83E0900FC4
:104173003F123C06904331E493FE740193F5828E23
:1041830083E0900F40F0E4FF123C09904331E49345
:10419300FE740193F5828E83E0900F41F0E4FF12E9
:1041A3003C09900F3FE0788BF6A3E0788DF6A3E00F
:0441B300788CF6D33B
:0141B70022E5
:1041B8007886E6C4131313540130E074E630E070D7
:1041C8007DFFE4FF1239A3E4FF123C09904331E478
:1041D80093FE740193F5828E83E0900F42F0E4FF22
:1041E800123C09904331E493FE740193F5828E8367
:1041F800E0900F43F0E4FF123C09904331E493FE52
:10420800740193F5828E83E0900F44F0E4FF123C32
:10421800097FF1121DB3900F42E0FF121DB3900FFA
:1042280043E0FF121DB3900F44E0FF121DB3D322E9
:01423800D3B2
:014239002262
:07423A00900F45EFF0D322C5
:0942410012424AE490008FF022C1
:10424A009016387404F0A3F0E4FF1238F2E4FF1277
:07425A003969789B7601220F
:10426100901106E054E3F0901102E0441CF0C234D6
:104271009016387442F0A3F0901606E054FEF0E078
:0D42810054FDF0E4FF1238F2E4789BF622C1
:10428E00EF701E900088E0D394644002D322900019
:10429E008FE0B45002D32290008FE064907049D327
:1042AE0022EF6401701E900098E0D394644002D314
:1042BE002290009FE0B45002D32290009FE06490C1
:1042CE007026D322EF6402701D9000A8E0D3946490
:1042DE004002D3229000AFE0B45002D3229000AF40
:0A42EE00E0B49004D322D322C322CF
:1042F8007F057E00125A811231FD123560E4FF12EB
:10430800428E401E900088E004F0900098E004F08F
:104318009000A8E004F0900F46E004F0E0C3946435
:0243280040CE85
:01432A002270
:104F4F0003040405050606070708090A0B0C0D0ED6
:104F5F000F1012141618191B1E2125292C30343747
:044F6F001B37536F2A
:10434C00E4900F47F0E54254EFF54254DFF5425448
:10435C00BFF542E54A601678557C0F7D017B007AEB
:10436C0000794A7E007F0112846E124799E54860FD
:10437C000FE5424410F542124677900F477401F056
:10438C00900F47E06003024436A3F0900F48E0FF23
:10439C00C39410504C1244517F017E00125A63900A
:1043AC001D04E0900F49F0900F48E0FD246DF8E6F5
:1043BC00FFA3E0F46FF0E0FF6003124491900F480C
:1043CC00E0246DF8E66006E5424440F542901D009D
:1043DC0074FFF0A3F0901D03F0900F48E004F08000
:1043EC00AAAF46EF131313541F30E03EAF46EF5401
:1043FC00F7F546E5465407900F49F0E07022AF48B8
:10440C00EF5407FF7401A807088002C333D8FC904F
:10441C000F49F0E0FF90005DE0FEEF5E900F49F079
:10442C00900F49E07004F548F546AF42EFC41354C1
:10443C0001FFAE42EEC454012FFFAE42EEC4131383
:04444C0054012FFFE9
:014450002249
:10445100EFC3940850197401A807088002C333D828
:10446100FCF4901D00F0A374FFF0901D03F0229066
:104471001D0074FFF0EF24F8FF7401A80708800203
:10448100C333D8FCF4901D01F0901D0374FFF0229A
:08449100900F4AEFF0A3EDF0DB
:10449900E4A3F0AF46EF131313541F30E002802258
:1044A900900F4BE0FD246DF8E6F4FF900F4AE05FB2
:1044B900FF7006900F4CF0800C1245D6EF60069005
:1044C9000F4C7401F0900F4CE0601FAF46EF4408A9
:1044D900F546900F4AE0FFA3E0246DF8E6FE900050
:1044E9005DE04EFEEF5E900F4AF0E4900F4DF090C4
:1044F9000F4AE0601F30E00D900F4DE0FF900F4B29
:10450900E0FD12451E900F4DE004F0900F4AE0C304
:0445190013F080DB40
:01451D00227B
:10451E00900F4EEFF0A3EDF0E0FD246DF8E6FB7A80
:10452E0000900F4EE0FC74017E00A804088005C3C5
:10453E0033CE33CED8F9FFEE5AFEEF5B4E6015AF99
:10454E0042EFC413540720E026EF4420F542AF0497
:10455E007B018018AF42EFC4540F20E012EF4410DD
:10456E00F542900F4EE0FFA3E0FDE4FB12457E22E4
:10457E00ED540FC454F0FEAD48ED540F4EF548EF18
:10458E005407FFAE48EE54F84FF548AF48EF4408D5
:10459E00F548AF46EF54FEF546AF46EF54EFF546FD
:1045AE00EBAF46700FEF54FDF54678B4E6540EC4EB
:1045BE0054F0800AEF4402F54678B4E654E0FFAEBC
:0845CE0046EE541F4FF5462292
:1045D600E4900F51F0900F50F0900F52EDF09000D4
:1045E6005DE0F45FFF7005900F5104F0900F51E00D
:1045F6007015746D2DF8E64FFC90005DE0F45CFCE0
:104606007005900F5104F0900F51E0705E0DEDC3F0
:1046160094134002E4FD900F52E0B50506900F5149
:104626007401F0900F51E070DE746D2DF8E6FE9087
:10463600005DE0F45EFE60025CFEEE60CA6F60083C
:10464600900F507401F0A3F0900F51E070B9A904D7
:10465600FEE930E0027E01E9C313F9EE60F3E9609A
:10466600A6900F507401F0A3F0809C900F50E0FFCD
:014676002221
:10467700AF48EF54F0C4540FFFE54254F04FF542F2
:10468700540FFF124451AF48EF5407FF7401A807B6
:10469700088002C333D8FC900F53F0E0FFC0071225
:1046A7004724EFF4FED0E05E900F53F0600CAF4666
:1046B700EFC313AF4620E00C8011AF46EFC313AF33
:1046C7004620E007EF54EFF5468005EF4410F54626
:1046D700AF46EF20E034AF46EFC41354076018AF7E
:1046E70046EFC4135407FEEF541FFFEE145407C4DC
:1046F7003354E04FF54622AF46EFC4540F20E00293
:104707008011AF46EF4401F54622AF46EFC4540F80
:0C47170020E006E4F548F5462212472A8F
:014723002273
:06472400901D04E0FF22DD
:10472A00AF48EF5407FF7401A807088002C333D8C3
:10473A00FCFFAE48EEC4540F246DF8E66FFEAD4898
:10474A00EDC4540F246DF8A606900F547401F0EFCF
:10475A005E6018E4F085484AE541540F4440F5414B
:10476A00900065E0900066F0E4F54B78887C0F7D58
:10477A00017B007A0079487E007F0112846E900FD7
:0E478A0054E0900F89F0125B65E4F548F546A7
:0147980022FE
:10479900E4FF900F55E05407FE7401A80608800253
:1047A900C333D8FCFE900F55E0C4540F246DF8E6CE
:1047B9005E7004F54A7F01EF701CAE41EEC4540FE0
:1047C900FDEE540FFEED14540FC454F04EF541C4E0
:1047D900540F60027F01EF7013E541540F4440F517
:1047E90041900066E014F0E060027F01EF702490D0
:1047F9000064E0900066F078887C0F7D017B017A87
:104809000F79557E007F0112846E900F897402F032
:03481900125B65CA
:01481C002279
:08481D00901D00E4F0A3F0225D
:0F482500901D00E4F0A3F0901105E04408F0228C
:03483400025A071E
:10483700E4900F56F078BCE6C4131313540120E03C
:1048470017783CE620E011AF40EFC4540FFFE54076
:0D485700540F6F60037401F0900F56E0FFE6
:014864002231
:0F486500900007E0900060746CF0A37443F022A1
:034874007F0022A0
:10487700124B09AE02AF01900F6EEEF0A3EFF04EB0
:104887007061900F58746CF0A37443F0900F57E069
:10489700D394004025A3E0FEA3E0F5828E83E49342
:1048A7002492FFE433FE900F59E02FF0900F58E069
:1048B7003EF0900F57E014F080D2900F58E0FEA31F
:1048C700E0F5828E83E4932491FFE433FE900F5941
:1048D700E02FF0900F58E03EF0900F6E740FF0A3AA
:0348E7007458F012
:0148EA0022AB
:0748EB0078BCE64480F622D0
:0748F20078BCE6547FF622BA
:1048F900124865124877124917E4F548F546125CE3
:0E4909009912491D124EC312497B75203822A7
:06491700E490005DF022B7
:10491D007F13786DE4F608DFFC7F10900040E4F023
:10492D00A3DFFCE54054F0F540540FF540E4F54AA3
:10493D00E54254EFF54254DFF54254BFF54274FFA2
:10494D00900F5AF0A3F0E54254F0F542900F5BE062
:10495D0020E01AAF42EF54F0FEEF04540F4EF54233
:0D496D00900F5AE0C313F0A3E013F080DFB9
:01497A00221A
:10497B00E4F54A900065741EF09000647404F078BE
:04498B009E766F2283
:10498F00788AA607EF541F904F4F93900064F0EF73
:10499F00C41354077E005403246FF582EE344FF591
:0849AF0083E493900065F022FF
:1049B700AF3EEFC4540F20E007AF3EEF4410F53E83
:1049C70012434CEF6005D215026C1CAF3EEF54EF5B
:0749D700F53EC2371248252E
:0149DE0022B6
:1049DF00AF40EFC4540FFFE540540FFE6F6031E559
:1049EF004054F0FFEE04540F4FF54074402EF58203
:1049FF00E43400F583E0FF900F5CE4F0A3EFF0E503
:104A0F0040540FC394104010E54054F0F540800817
:104A1F0074FF900F5CF0A3F0900F5CE0FEA3E0FF3B
:014A2F002264
:104A3000E54054F0C4540FFFE54154F04FF54122D6
:104A4000900F5E7401F0AE40EEC4540FFE540F247C
:104A500040F582E43400F583EFF0E540540FFFEEBB
:104A600004540FC454F04FF540C4540FC394104085
:104A700006E540540FF540E540540FFFAE40EEC44C
:104A8000540FB50721E541540FC454F0FFE54054DD
:104A90000F4FF540C4540F2440F582E43400F583F1
:0B4AA000E4F0900F5EF0900F5EE0FF6E
:014AAB0022E8
:104AAC00AF40EFC4540FFF0FEFC394104002E4FF6C
:0A4ABC00E540540FB50702C322D3F2
:014AC60022CD
:0B4AC700900F5FEBF0A3EAF0A3E9F012
:104AD200E4FD900F5FE0FBA3E0FAA3E0F9128494F7
:104AE200601FED701C900F5FA3E475F00112854505
:104AF200A9F0FA128494FF124A40EF70D57D8080AB
:034B0200D1AF052B
:014B0500228D
:034B06007FFF220C
:074B09007B007A0079002215
:104B1000E4900F62F0E54554EFF54554DFF5455458
:104B2000BFF545E54B6016786D7C0F7D017B007A03
:104B300000794B7E007F0112846E124ECBE54960F6
:104B40000FE5454410F545124D60900F627401F079
:104B5000900F62E07049A3F0900F63E0FFC39400F0
:104B6000503D124C09901D04E0900F64F0900F63CB
:104B7000E0FE247DF8E6FFA3E0F46FF0E0FF6007BD
:104B8000EE2410FD124C32900F63E0247DF8E660B5
:104B900006E5454440F545900F63E004F080B9AF69
:104BA00047EF131313541F30E03EAF47EF54F7F5B0
:104BB00047E5475407900F64F0E07022AF49EF5487
:104BC00007FF7401A807088002C333D8FC900F6464
:104BD000F0E0FF90005DE0FEEF5E900F64F0900F5C
:104BE00064E07004F549F547901D037403F0AF4588
:104BF000EFC4135401FFAE45EEC454012FFFAE4580
:084C0000EEC4131354012FFF51
:014C08002289
:104C0900EFC394025016901D0074FFF0A3F07401D5
:104C1900A807088002C333D8FCF48008901D0074EB
:094C2900FFF0A3F0901D03F0223E
:084C3200900F65EFF0A3EDF017
:104C3A00E4FBAF47EF131313541F30E0030B801E3E
:104C4A00900F66E0FD246DF8E6F4FF900F65E05FD3
:104C5A00FF7003FB80081245D6EF60027B01EB6010
:104C6A001FAF47EF4408F547900F65E0FFA3E02424
:104C7A006DF8E6FE90005DE04EFEEF5E900F65F087
:104C8A00E4900F67F0900F65E0601F30E00D900F21
:104C9A0067E0FF900F66E0FD124CB5900F67E004E5
:0A4CAA00F0900F65E0C313F080DB0B
:014CB40022DD
:104CB500900F68EFF0A3EDF0E0FD246DF8E6FB7AC8
:104CC50000900F68E0FC74017E00A804088005C30D
:104CD50033CE33CED8F9FFEE5AFEEF5B4E6015AFFB
:104CE50045EFC413540720E026EF4420F545AF04F3
:104CF5007B018018AF45EFC4540F20E012EF44103C
:104D0500F545900F68E0FFA3E0FDE4FB124D152289
:104D1500ED24F0540FC454F0FEAD49ED540F4EF59B
:104D250049EF5407FFAE49EE54F84FF549AF49EF47
:104D35004408F549AF47EF54FEF547AF47EF54EF49
:104D4500F547EBAF477005EF54FD8003EF4402F5DF
:0B4D550047AF47EF541F4420F54722F2
:104D6000AF49EFC4540FFF124C09124724EFF4FF70
:104D7000AE49EE5407FE7401A806088002C333D87A
:104D8000FC5FFE600CAF47EFC313AF4720E00C8021
:104D900011AF47EFC313AF4720E007EF54EFF547DC
:104DA0008005EF4410F547AF47EF20E034AF47EF01
:104DB000C41354076018AF47EFC4135407FEEF54F1
:104DC0001FFFEE145407C43354E04FF54722AF479A
:104DD000EFC4540F20E0028011AF47EF4401F547C4
:104DE00022AF47EFC4540F20E006E4F549F547220F
:034DF000124DF46D
:014DF300229D
:104DF400AF49EF5407FF7401A807088002C333D8F2
:104E0400FCFFAE49EEC4540F247DF8E66FFEAD49B5
:104E1400EDC4540F247DF8A606900F6A7401F0EFD8
:104E24005E6018E4F085494BE544540F4440F54472
:104E3400900065E0900066F0E4F54A786B7C0F7DA5
:104E4400017B007A0079497E007F0112846E900F05
:0E4E54006AE0900F6CF0124E63E4F549F547EA
:014E6200222D
:104E63009000FFE030E62D9000FCE0F47051900FCD
:104E73006CE0704B900F6BE0540775F003A4900047
:104E8300FDF0900F6BE0C4540F9000FEF09000FC17
:104E93007433F022900F6BE0540775F003A4FFE026
:104EA300FEC4540F2FFF900062E0FCA3E02FF582B5
:0F4EB300E43CF583E493FF900F6CE0FD125BEF9E
:014EC20022CD
:084EC300E4F549F547F54B2227
:104ECB00E4FF900F6DE05407FE7401A80608800202
:104EDB00C333D8FCFE900F6DE0C4540F247DF8E66D
:104EEB005E7004F54B7F01EF701CAE44EEC4540FA3
:104EFB00FDEE540FFEED14540FC454F04EF544C4A4
:104F0B00540F60027F01EF7013E544540F4440F5DA
:104F1B0044900066E014F0E060027F01EF70249093
:104F2B000064E0900066F0786B7C0F7D017B017A6A
:104F3B000F796D7E007F0112846E900F6C7402F0FE
:034F4B00124E63A0
:014F4E002240
:105986001C011C031C021C001C0A1C041C051C0612
:105996001C121C141C131C111C1B1C151C161C177A
:1059A6001C2A1C2C1C2B1C291C311C2D1C2E1C2FAC
:1059B6001C361C381C371C351C3D1C391C3A1C3B3C
:1059C6001C001C101C0A161B161C1602181C111C87
:1059D600211C1B162116221603061C291C321C31FB
:1059E600163E163F1606C01C351C3E1C3D164916B3
:0459F6004A16060641
:0A4F7300900F71EDF0900F70EFF059
:104F7D00C269C454F0248EF582E43459F583E49368
:104F8D00FE740193F5828E83E0540764076006D2A8
:104F9D006978A97640900F71E0F920E70302502F50
:104FAD00900F70E0FFC454F02488F582E43459F575
:104FBD0083E493FC740193F5828C83EBF0E054FE53
:104FCD00F0E9547F900F71F0900F74E0FCA3E0F5C1
:104FDD00828C83E0FEEFC454F02490F582E43459C2
:104FED00F583E493FC740193F5828C83EEF0900FBE
:104FFD0071E0640C704C900F74E0FEA3E0F5828EAE
:10500D0083A3E0FF900F70E0C454F02492F582E486
:10501D003459F583E493FC740193F5828C83EFF09E
:10502D008020EB4401FF900F70E0C454F02488F50C
:10503D0082E43459F583E493FC740193F5828C83F7
:10504D00EFF0900F73E0FF900F70E0FEC454F0246A
:10505D008AF582E43459F583E493FC740193F58267
:10506D008C83EFF0EEC454F0248CF582E43459F5C2
:10507D0083E493FE740193F5828E8374FEF0900F9A
:10508D0071E04440FE900F70E0FF1252F8926930CB
:10509D006903025133900F70E0FFC454F02488F57A
:1050AD0082E43459F583E493FC740193F5828C8387
:1050BD00E030E04FEFC454F02490F582E43459F51C
:1050CD0083E493FE740193F5828E83E0FF900F7459
:1050DD00E0FCA3E0FDF5828C83EFF0900F71E0B45E
:1050ED000C21900F70E0C454F02492F582E43459F1
:1050FD00F583E493FE740193F5828E83E08D828CAB
:10510D0083A3F0900F70E0C454F0248CF582E43446
:10511D0059F583E493FE740193F5828E8374FEF04A
:10512D00E478A9F6D32278A9E6FE900F70E0FFC4CB
:10513D0054F0248CF582E43459F583E493FC740126
:0C514D0093F5828C83E04EF6125718C3D5
:015159002233
:05515A00900F76EFF05C
:10515F00C26AC454F0248EF582E43459F583E49383
:10516F00FE740193F5828E83E0540764076006D2C4
:10517F006A78A97640900F76E0FEC454F02488F543
:10518F0082E43459F583E493FC740193F5828C83A4
:10519F00EDF0EEC454F0248AF582E43459F583E43B
:1051AF0093FC740193F5828C83EBF0EEC454F024DE
:1051BF008CF582E43459F583E493FE740193F58200
:1051CF008E8374FEF0900F76E0FFC454F02486F5C2
:1051DF0082E43459F583E493FC740193F5828C8354
:1051EF007444F0125310926A900F76E0206A1FC435
:1051FF0054F0248CF582E43459F583E493FE740162
:10520F0093F5828E8374FEF0E478A9F6D3221256BA
:02521F00FCC3CE
:01522100226A
:02522200A907DA
:10522400C26BE9C454F0248EF582E43459F583E466
:1052340093FE740193F5828E83E064076006D26B5B
:1052440078A97640ED4401FFE9C454F02488F5823E
:10525400E43459F583E493FC740193F5828C83EF71
:10526400F0E9C454F0248CF582E43459F583E493D2
:10527400FE740193F5828E8374FEF0E9C454F02425
:1052840086F582E43459F583E493FE740193F58240
:105294008E837444F0E9C454F0206B392490F58271
:1052A400E43459F583E493FE740193F5828E83E02C
:1052B4008B828A83F0E9C454F0248CF582E4345957
:1052C400F583E493FE740193F5828E8374FEF0E417
:1052D40078A9F6D322248CF582E43459F583E49337
:1052E400FE740193F5828E83E078A946F6AF01122D
:0352F4005718C385
:0152F7002294
:1052F800C454F02486F582E43459F583E493FC74AD
:085308000193F5828C83EEF0A5
:10531000D26CC2AD75CDB575CC22D2CAC2CF20CF6A
:1053200028EFC454F0248CF582E43459F583E493D7
:10533000FC740193FDF5828C83E0541C700B8D820C
:0E5340008C83E0548260D7C26C125A47A26C74
:01534E00223C
:05534F00900F77EFF064
:10535400C26DC454F0248EF582E43459F583E49389
:10536400FE740193F5828E83E0540764076006D2CD
:105374006D78A97640EB4401FE900F77E0FFC454AA
:10538400F02488F582E43459F583E493FA740193A4
:10539400F5828A83EEF0900F7AE0FEEFC454F02495
:1053A4008AF582E43459F583E493FA740193F5821F
:1053B4008A83EEF0ED547FFD4440FEEF1252F892E2
:1053C4006D900F77E0FFC454F02494F582E43459CF
:1053D400F583E493FC740193F5828C83E0FE900FD3
:1053E4007BE0FCA3E0F5828C83EEF0900F7CE0047C
:1053F400F07006900F7BE004F0EFC454F02490F5B5
:1054040082E43459F583E493FE740193F5828E8328
:10541400E0F531E531D3940040251531E531B4018F
:105424001E900F77E0C454F02486F582E43459F5D5
:1054340083E493FE740193F5828E83E04420F0901C
:105444000F77E0C454F0248CF582E43459F583E4F6
:1054540093FE740193F5828E8374FEF0E531D39448
:105464000050030254F8306D030254F8900F77E0B3
:10547400FF125310926D206D7B900F77E0FFC454A0
:10548400F02494F582E43459F583E493FC74019395
:10549400F5828C83E0FE900F7BE0FCA3E0F5828C28
:1054A40083EEF0900F7CE004F07006900F7BE00434
:1054B400F0EFC454F0248CF582E43459F583E4937A
:1054C400FE740193F5828E8374FEF01531E5316428
:1054D400017089900F77E0C454F02486F582E43497
:1054E40059F583E493FE740193F5828E83E044209E
:1054F400F0025460900F77E0FFC454F02486F582E4
:10550400E43459F583E493FC740193F5828C83E0CD
:1055140054DFF0206D20EFC454F0248CF582E43481
:1055240059F583E493FE740193F5828E8374FEF03F
:0D553400E478A9F6D322900F771256FBC33E
:015541002247
:05554200900F7DEFF069
:10554700C26EC454F0248EF582E43459F583E49393
:10555700FE740193F5828E83E0540764076006D2D8
:105567006E78A97640900F7DE0FEC454F02488F54C
:1055770082E43459F583E493FA740193F5828A83BC
:10558700EBF0900F80E0FFEEC454F0248AF582E43C
:105597003459F583E493FA740193F5828A83EFF023
:1055A700900F83E0FCEEC454F02490F582E4345964
:1055B700F583E493FE740193F5828E83ECF0900FEC
:1055C70081E0FEA3E0F5828E83E0FE900F7DE0FF91
:1055D700C454F02494F582E43459F583E493FA74BF
:1055E7000193F5828A83EEF0ED4440FEEFC454F058
:1055F7002486F582E43459F583E493FA740193F52C
:10560700828A83EEF0EC701B206E18125310926E94
:10561700306E0BE4F530900F7DE0FF125718E53040
:1056270024FF22900F7DE0FF125310926E900F839C
:10563700E0F531E5316066206E63900F7DE0FF1283
:105647005310926E206E56900F81E0FEA3E0F58214
:105657008E83E0FF900F7DE0FEC454F02494F58222
:10566700E43459F583E493FC740193F5828C83EF5A
:10567700F0900F82E004F07006900F81E004F0EEE6
:10568700C454F0248CF582E43459F583E493FE7412
:105697000193F5828E8374FEF015318096900F7D0D
:1056A700E0FFC454F02486F582E43459F583E4938B
:1056B700FC740193F5828C83E054DFF0206E20EFB9
:1056C700C454F0248CF582E43459F583E493FE74D2
:1056D7000193F5828E8374FEF0E478A9F6D32290C5
:0656E7000F7D1256FBC30B
:0156ED00229A
:0C56EE00E4FF90200BE4F00FEFB464F632
:0156FA00228D
:1056FB00E0FFC454F0248CF582E43459F583E49331
:0D570B00FC740193F5828C83E078A946F6CA
:02571800AE07DA
:10571A00EE75F00DA424CAF582E43459F583E493B6
:10572A00FC740193F5828C837403F01256EEEE75C5
:10573A00F00DA424CAF582E43459F583E493FC7489
:10574A000193F5828C837407F0EE75F00DA424C6DC
:10575A00F582E43459F583E493FC740193F5828C61
:10576A008374FEF01256EEEE75F00DA424CAF5828B
:10577A00E43459F583E493FC740193F5828C83E055
:10578A00FF5407640770030258E9EE75F00DA4246C
:10579A00CCF582E43459F583E493FC740193F582E1
:1057AA008C837440F0EE75F00DA424CEF582E434B7
:1057BA0059F583E493FC740193F5828C837440F069
:1057CA00EE75F00DA424D0F582E43459F583E49300
:1057DA00FC740193F5828C83C083C082E0FFEE756E
:1057EA00F00DA424D2F582E43459F583E493FDC381
:1057FA0074FF9DFDEF5DD082D083F01256EE1256F3
:10580A00EE1256EEEE75F00DA424D0F582E434596A
:10581A00F583E493FC740193F5828C83C083C08280
:10582A00E0FFEE75F00DA424D2F582E43459F58335
:10583A00E493FDEF4DD082D083F01256EEEE75F070
:10584A000DA424CCF582E43459F583E493FC740165
:10585A0093F5828C837404F0EE75F00DA424CEF5D2
:10586A0082E43459F583E493FC740193F5828C83C2
:10587A007404F01256EEEE75F00DA424C6F582E417
:10588A003459F583E493FC740193F5828C8374FE96
:10589A00F0EE75F00DA424CAF582E43459F583E4D8
:1058AA0093FC740193F5828C83E0FF5407640770BC
:1058BA0002802CEE14601214601714601C2403700A
:1058CA001E9020097401F080169020097402F0805D
:1058DA000E9020097404F080069020097408F012D2
:1058EA0056EEEE75F00DA424CAF582E43459F58318
:1058FA00E493FC740193F5828C837407F0EE75F0DF
:10590A000DA424C8F582E43459F583E493FE7401A6
:08591A0093F5828E837401F005
:015922002262
:10592300901C0AE05403640360020550E550D394CD
:105933000A401D901C0AE4F090200904F01256EE70
:10594300E4F550C258901C0A7407F0901C10802F85
:10595300901C1BE05403640360020551E551D3948A
:105963000A401F901C1BE4F09020097402F01256A9
:10597300EEE4F551C259901C1B7407F0901C21747E
:0359830001F0220E
:0959FA00758CF1758A06C28D223C
:035A03000259FA4B
:015A0600227D
:105A0700758DFF758B58C28FD28EAF3FEF4410F55F
:025A17003F222C
:0B5A1900758DFDE4F58BC28FD28E224C
:035A2400C28E220D
:105A2700C28CC28D758CF1758A06758911D28CD29C
:105A3700A9C28EC28F758DFDE4F58BD28ED2AB22B3
:0B5A470075CDFF75CC58D2CAD2AD223D
:075A520075CDFDE4F5CC2247
:055A5900D2CAD2AD220B
:055A5E00C2CAC2AD2226
:105A6300900F84EEF0A3EFF0900F85E024FFF09009
:0E5A73000F84E034FFF0E07002A3E070EB223D
:085A8100900F86EEF0A3EFF098
:105A8900A2AF926FC2AF900F86E07002A3E0601CD4
:105A9900E4FF90200BE4F00FEFB442F6900F87E09B
:105AA90024FFF0900F86E034FFF080DAA26F92AF06
:015AB90022CA
:105ABA00C270900088E0F46003E004F0900098E07F
:105ACA00F46003E004F09000A8E0F46003E004F05E
:105ADA000554E554D394144006125923E4F5547836
:105AEA0038E620E020E61313543F30E002D270304B
:105AFA007068901105E04408F0AF3EEFC4540F30CF
:105B0A00E058D2372212124C901105E04408F0AF47
:105B1A003EEFC4540F30E002D23790007EE0D394B7
:105B2A00004002D23390007CE0D394004002D2328B
:105B3A00200410AF40EFC4540FFFE540540F6F60CC
:105B4A0002D232E4FF123C73400E7F01123C7340D2
:0A5B5A00077F02123C735002D233A1
:015B6400221E
:10608900FF5DC1FF5DD7FF5E85FF5F67FF5FABFF08
:106099005FD8FF603EFF6AE7FF5DF8E0F000E0F0DF
:1060A9001200E0F05900E01200E05900E012E000AF
:1060B900E0F01200E11477E1F014F07700E07EE0FF
:1060C900F07E0014E07EE0F07EF014003DB0B0B048
:1060D9003EB1B1B146B2B2B23CB4B4B443B5B5B550
:1060E90044B6B6B63BB8B8B842B9B9B94BBABABAF8
:1060F9003ABCBCBC49BDBDBD5A8181813060D53037
:1061090060D93060DD306CDB3060E13060E53060F3
:10611900E9306CDF3060ED3060F13060F5306CE310
:106129003060F93060FD306CE7206101206D2B2073
:106139006D2D206D2F206D31206D33206D35206D33
:1061490037206D39206D3B206D3D206D3F206D411D
:10615900206D43206D45206D47206D49206D4B20F2
:106169006D4D206D4F206D51206D53206D55206D63
:1061790057206D59206D5B206D5D206D5F206D612D
:10618900206D63206D65206D67206D69206D6B2022
:106199006D6D206D6F206D7183005A011F012701FC
:1061A9002F0137013F015E010205040508050806B4
:1061B90010051006400520050000000401048400B4
:1061C9006C0269027D027A02750272026B02740224
:1061D9004D0115013B01340123013201210148011F
:1061E90010013A01380130012801200118012B0161
:1061F90040015001000000006C0075007D007C002A
:106209006B00730074007B00690072007A007900EA
:10621900700071004A0200007102840070027C085B
:106229000000000000000000000000000000000065
:106239000000000000000000000701070207030733
:106249000407050706070707080709070A070B07D1
:106259000C070D070E070F07100711071207130781
:106269001407150716071707180719071A071B0731
:106279001C071D071E071F072007210722072307E1
:106289002407250726072707280729072A072B0791
:086299002C072D072E072F072B
:105B65009000FFE030E6299000FCE0F4707A900F99
:105B750089E07074900F88E054079000FAF0900F58
:105B850088E0C4540F9000FBF09000FC7433F022C1
:105B9500900060746CF0A37443F0900062746CF034
:105BA500A374C3F0900F88E05407C454F0FFE0FEDF
:105BB500C4540F4FF533AF33900060E0FCA3E02FE2
:105BC500F582E43CF583E493F532783AE630E00E6D
:105BD500E53264826005E532B48303E4F532900F63
:095BE50089E0FDAF32125BEF22F2
:015BEE002294
:075BEF00900F8AEDF0AC07F6
:105BF60078B5A625ECC394E04027EC2420A3F0E07A
:105C060025E0F0E6C413135401FFE6FEC413540165
:105C16006F6003E004F0900F8BE0906CEB93FC80D8
:105C26005AECC3949C4054EC2464900F8BF0E0FF34
:105C360075F003A42405F582E5F03461F583E49359
:105C4600FC75F003EFA42406F582E5F03461F583D4
:105C5600E493FF740193900F8CCFF0A3EFF0AF04A1
:105C6600125CF5900F8DE02FF0900F8CE03400F071
:105C7600E0FEA3E0F5828E83E493FCAF04900F8AE6
:105C8600E0FD125C9D78B5E6F525E6C413540713CE
:025C9600921961
:015C980022E9
:045C9900E4F54C22C0
:085C9D00900F8EEFF0A3EDF073
:105CA500E4A3F0900F8EE0FF6045EF20E708900F2A
:105CB5008FE0FD025DC1900F8EE0547FF0E025E09E
:105CC500F0E0FF9061A193FEEFA393FCAF06900F68
:105CD5008FE0FDEC75F003A42489F582E43460F5CA
:0F5CE50083740193FA740293F5828A8312858582
:015CF400228D
:105CF500E4FEFDEF30E12078B5E6FCC31320E009B2
:105D0500E6FC1313543F30E00D7401A8050880022A
:105D1500C333D8FC4EFE0DEF30E21A78B5E6FC131E
:105D25001313541F30E00D7401A805088002C33316
:105D3500D8FC4EFE0DEF30E31878B5E6FCC4540FE1
:105D450030E00D7401A805088002C333D8FC4EFE6F
:105D55000DEF30E42920132678B5E620E003301452
:105D65001C78B5E6FCC41313540330E003AF0622D8
:105D75007401A805088002C333D8FC4EFE0DEF3030
:105D8500E51A78B5E6FCC41313540330E00D74012D
:105D9500A805088002C333D8FC4EFE0DEF30E61986
:105DA50078B5E6C413540730E00FAF057401A807B2
:0B5DB500088002C333D8FC4EFEAF068E
:015DC00022C0
:105DC100900F91EFF0EDB401057FF0124A40900F72
:065DD10091E0FF024A40D0
:105DD700900F92EFF0A3EDF07FE0124A40900F93FF
:105DE700E0B401057FF0124A40900F92E0FF024AAB
:015DF700406B
:085DF800900F94EFF0A3EDF011
:105E0000D27178B5E6C31320E008E61313543F308F
:105E1000E00B78B5E6C4540F30E002C27178B5E605
:105E2000131313541F30E010900F95E0B401057F59
:105E3000F0124A407F848049900F95E0701A7FE00D
:105E4000124A4030710A7F12124A407FE0124A40E3
:105E5000900F94E0FF124A40900F95E06401702487
:105E60007FE0124A407FF0124A40900F94E0FF1208
:105E70004A4030710F7FE0124A407FF0124A407F63
:045E800012124A4070
:015E840022FB
:085E8500900F96EFF0A3EDF081
:105E8D0078B5E630E059E0640170307BFF7A6079D7
:105E9D00A4124AC7900F96E0FF124A4078B5E6C3A8
:105EAD001330E003025F66E6FF1313543F30E00347
:105EBD00025F667BFF7A6079A78060900F97E07034
:105ECD001C78B5E6C31320E014E6FF1313543F20EE
:105EDD00E07A7BFF7A6079AF124AC7806F806D9050
:105EED000F97E0640170377BFF7A6079A4124AC77F
:105EFD00900F96E0FF124A4078B5E6FF1313543F1A
:105F0D0030E0097BFF7A6079B2124AC778B5E6FFB7
:105F1D00C31330E0447BFF7A6079AF024AC7900F1C
:105F2D0097E0702878B5E6FFC31330E0097BFF7A60
:105F3D006079A7124AC778B5E6FF1313543F30E0D6
:105F4D00097BFF7A6079AB124AC780007FE0124A65
:095F5D0040900F96E0FF124A404B
:015F66002218
:085F6700900F98EFF0A3EDF09C
:105F6F00BD011A7BFF7A6079A4124AC7900F98E09F
:105F7F00FF124A407BFF7A6079B9024AC7900F99A6
:105F8F00E0700B7BFF7A6079B5124AC780057FE01E
:0B5F9F00124A40900F98E0FF124A40A9
:015FAA0022D4
:105FAB00ED702978B5E6FEC4540F20E004EFB40180
:105FBB0012EF7BFFB401067A6079CC800C7A6079A2
:0C5FCB00C680067BFF7A6079BD124AC7D1
:015FD70022A7
:105FD800900F9AEFF0A3EDF06005E064017039903E
:105FE8000F9AE030E107A3E0FD7F128028900F9A16
:105FF800E030E307A3E0FD7F11801A900F9AE030AC
:10600800E407A3E0FD7F14800C900F9AE030E208CB
:10601800A3E0FD7F59125DC1900F9BE0FF700990CE
:106028000F9AE078B546F622EFB40109900F9AE08E
:06603800F478B556F622D3
:10603E00900F9CEFF0A3EDF06005E06401701E90F0
:10604E000F9CE030E308A3E0FD7F11125DD7900FA7
:10605E009CE030E408A3E0FD7F14125DD7900F9D05
:10606E00E0FF7009900F9CE078B546F622EFB40180
:0B607E0009900F9CE0F478B556F62264
:10630000C0087463C0E0C082C08375080AC290C22E
:106310009122C0087463C0E0C082C08375081CC2AB
:1063200090C29122C0087463C0E0C082C083750827
:106330002ED290C29122C0087463C0E0C082C08394
:08634000750840C290D29122C1
:0D62A100EF9062AA93906300730A1C2E40D8
:03000000021000EB
:0F1000007581D0901001743FF012630A021C3802
:1062AE00901609E030E1047F0180027F00EFF45484
:0B62BE0001FF900606E054FE4FF022A6
:10645800C06A635555A955665AA5F5C06A6355556E
:10646800A965665AA5F5C06A635555A955666A694E
:0C647800FAC06A635555A965666A69FAA6
:1062C900902301E04402F0900F9E740BF0A374B880
:1062D900F0D3900F9FE09400900F9EE0940040133C
:1062E900A3E024FFF0900F9EE034FFF0902301E03B
:0362F90020E1DEC3
:0162FC00227F
:10634800902008E04402F0901105E0547FF090118D
:0563580001E04480F0AB
:01635D00221D
:10635E00902305E04408F0900FA1740BF0A374B8DD
:10636E00F0D3900FA2E09400900FA1E094004013A0
:10637E00A3E024FFF0900FA1E034FFF0902305E09E
:03638E0020E3DE2B
:0163910022E9
:10639200902307E04404F0900FA3740BF0A374B8A9
:1063A200F0D3900FA4E09400900FA3E09400401368
:1063B200A3E024FFF0900FA3E034FFF0902307E066
:0363C20030E7DEE3
:0163C50022B5
:1063C600E4FFEFC43354E090230CF0A3740AF0907A
:1063D600230F7430F0E4FEEF75F00BA42458F58219
:1063E600E43464F583E5822EF582E43583F583E4AF
:1063F6009390230EF00EEEB40BDD90230FE04401D4
:10640600F00FEFB404BC126392902307E04401F04E
:016416002263
:10641700126348902305E0547FF0902309E4F0903D
:1064270023087433F01263C612635E1262C99023A5
:106437000274C0F0901109E04480F0901105E04427
:1064470080F0901101E04480F0902305E04480F053
:016457002222
:0162FD00227E
:1067EA00654F655065516558655F656065616562AD
:1067FA006563656465656566656765686569656A33
:10680A00656B656C656D656E656F657065716572E2
:10681A006573657465756576657765786579657A92
:10682A00657B657C657D657E657F65806581658242
:10683A006583658465856586658765886589658AF2
:10684A00658B658C658D658E658F659065916592A2
:10685A006593659465956596659765986599659A52
:10686A00659B659C65A865B565B665B765B865B984
:10687A0065BA65BB65BC65BD65BE65BF65C065C1FA
:10688A0065C265C365C465C565C665C765C865C9AA
:10689A0065CA65CB65CC65CD65CE65CF65D065D15A
:1068AA0065D265D965DA65DB65DC65DD65DE65DFE0
:1068BA0065E065E165E265E365E465E565E665E78A
:1068CA0065E865E865E865E865E865E865E865E856
:1068DA0065E865E865E865E865E865E865E865E846
:10648400AD07EDC394804021900343E0C4540F75DD
:10649400F080A4FFED2480FDE434FFCD2FFFED3523
:1064A400F078BEF608A607800AAF05740378BEF636
:1064B40008A60778BEE6FE08E6F5828E83E0FF2292
:1064C400AC07ECC394804021900343E0C4540F759F
:1064D400F080A4FFEC2480FBE434FFCB2FFFEB35EA
:1064E400F078BEF608A607800AAF04740378BEF6F7
:1064F40008A60778BEE6FC08E6F5828C83EDF02258
:10650400AF67EFFEAD667C00E42DFFEC3E78BEF68F
:1065140008A60718E6FE08E6F5828E83E0901501CA
:02652400F02263
:10652600AF68EFFEAD677C00E42DFFEC3E78BEF66B
:1065360008A60718E6FE08E6F5828E83E566F022D1
:0162FE00227D
:0162FF00227C
:016546002232
:016547002231
:016548002230
:01654900222F
:01654A00222E
:01654B00222D
:01654C00222C
:01654D00222B
:01654E00222A
:01654F002229
:016550002228
:076551007564047565022268
:07655800756405756503225F
:01655F002219
:016560002218
:016561002217
:016562002216
:016563002215
:016564002214
:016565002213
:016566002212
:016567002211
:016568002210
:01656900220F
:01656A00220E
:01656B00220D
:01656C00220C
:01656D00220B
:01656E00220A
:01656F002209
:016570002208
:016571002207
:016572002206
:016573002205
:016574002204
:016575002203
:016576002202
:016577002201
:016578002200
:0165790022FF
:01657A0022FE
